{"abi":[{"type":"constructor","inputs":[],"stateMutability":"nonpayable"},{"type":"receive","stateMutability":"payable"},{"type":"function","name":"NATIVE_TOKEN","inputs":[],"outputs":[{"name":"","type":"address","internalType":"address"}],"stateMutability":"view"},{"type":"function","name":"UPGRADE_INTERFACE_VERSION","inputs":[],"outputs":[{"name":"","type":"string","internalType":"string"}],"stateMutability":"view"},{"type":"function","name":"auctions","inputs":[{"name":"","type":"uint256","internalType":"uint256"}],"outputs":[{"name":"seller","type":"address","internalType":"address"},{"name":"nft","type":"address","internalType":"address"},{"name":"tokenId","type":"uint256","internalType":"uint256"},{"name":"endTime","type":"uint256","internalType":"uint256"},{"name":"ended","type":"bool","internalType":"bool"},{"name":"highestBidToken","type":"address","internalType":"address"},{"name":"highestBidAmount","type":"uint256","internalType":"uint256"},{"name":"highestBidUsd18","type":"uint256","internalType":"uint256"},{"name":"highestBidder","type":"address","internalType":"address"},{"name":"minBidUsd18","type":"uint256","internalType":"uint256"}],"stateMutability":"view"},{"type":"function","name":"bidEth","inputs":[{"name":"auctionId","type":"uint256","internalType":"uint256"}],"outputs":[],"stateMutability":"payable"},{"type":"function","name":"bidUSDC","inputs":[{"name":"auctionId","type":"uint256","internalType":"uint256"},{"name":"usdcAmount","type":"uint256","internalType":"uint256"}],"outputs":[],"stateMutability":"nonpayable"},{"type":"function","name":"createAuction","inputs":[{"name":"nft","type":"address","internalType":"address"},{"name":"tokenId","type":"uint256","internalType":"uint256"},{"name":"durationSeconds","type":"uint256","internalType":"uint256"},{"name":"minBidUsd18","type":"uint256","internalType":"uint256"}],"outputs":[{"name":"auctionId","type":"uint256","internalType":"uint256"}],"stateMutability":"nonpayable"},{"type":"function","name":"endAuction","inputs":[{"name":"auctionId","type":"uint256","internalType":"uint256"}],"outputs":[],"stateMutability":"nonpayable"},{"type":"function","name":"ethUsdFeed","inputs":[],"outputs":[{"name":"","type":"address","internalType":"contract AggregatorInterface"}],"stateMutability":"view"},{"type":"function","name":"feeBps","inputs":[],"outputs":[{"name":"","type":"uint256","internalType":"uint256"}],"stateMutability":"view"},{"type":"function","name":"feeRecipient","inputs":[],"outputs":[{"name":"","type":"address","internalType":"address"}],"stateMutability":"view"},{"type":"function","name":"getAuction","inputs":[{"name":"auctionId","type":"uint256","internalType":"uint256"}],"outputs":[{"name":"","type":"tuple","internalType":"struct NFTAuctionMarketUUPS_V1.Auction","components":[{"name":"seller","type":"address","internalType":"address"},{"name":"nft","type":"address","internalType":"address"},{"name":"tokenId","type":"uint256","internalType":"uint256"},{"name":"endTime","type":"uint256","internalType":"uint256"},{"name":"ended","type":"bool","internalType":"bool"},{"name":"highestBidToken","type":"address","internalType":"address"},{"name":"highestBidAmount","type":"uint256","internalType":"uint256"},{"name":"highestBidUsd18","type":"uint256","internalType":"uint256"},{"name":"highestBidder","type":"address","internalType":"address"},{"name":"minBidUsd18","type":"uint256","internalType":"uint256"}]}],"stateMutability":"view"},{"type":"function","name":"initialize","inputs":[{"name":"_ethUsdFeed","type":"address","internalType":"address"},{"name":"_usdc","type":"address","internalType":"address"},{"name":"_usdcUsdFeed","type":"address","internalType":"address"},{"name":"_feeRecipient","type":"address","internalType":"address"},{"name":"_feeBps","type":"uint256","internalType":"uint256"}],"outputs":[],"stateMutability":"nonpayable"},{"type":"function","name":"nextAuctionId","inputs":[],"outputs":[{"name":"","type":"uint256","internalType":"uint256"}],"stateMutability":"view"},{"type":"function","name":"onERC721Received","inputs":[{"name":"","type":"address","internalType":"address"},{"name":"","type":"address","internalType":"address"},{"name":"","type":"uint256","internalType":"uint256"},{"name":"","type":"bytes","internalType":"bytes"}],"outputs":[{"name":"","type":"bytes4","internalType":"bytes4"}],"stateMutability":"pure"},{"type":"function","name":"owner","inputs":[],"outputs":[{"name":"","type":"address","internalType":"address"}],"stateMutability":"view"},{"type":"function","name":"proxiableUUID","inputs":[],"outputs":[{"name":"","type":"bytes32","internalType":"bytes32"}],"stateMutability":"view"},{"type":"function","name":"renounceOwnership","inputs":[],"outputs":[],"stateMutability":"nonpayable"},{"type":"function","name":"transferOwnership","inputs":[{"name":"newOwner","type":"address","internalType":"address"}],"outputs":[],"stateMutability":"nonpayable"},{"type":"function","name":"upgradeToAndCall","inputs":[{"name":"newImplementation","type":"address","internalType":"address"},{"name":"data","type":"bytes","internalType":"bytes"}],"outputs":[],"stateMutability":"payable"},{"type":"function","name":"usdc","inputs":[],"outputs":[{"name":"","type":"address","internalType":"contract IERC20"}],"stateMutability":"view"},{"type":"function","name":"usdcUsdFeed","inputs":[],"outputs":[{"name":"","type":"address","internalType":"contract AggregatorInterface"}],"stateMutability":"view"},{"type":"event","name":"AuctionCancelled","inputs":[{"name":"auctionId","type":"uint256","indexed":true,"internalType":"uint256"}],"anonymous":false},{"type":"event","name":"AuctionCreated","inputs":[{"name":"auctionId","type":"uint256","indexed":true,"internalType":"uint256"},{"name":"seller","type":"address","indexed":true,"internalType":"address"},{"name":"nft","type":"address","indexed":true,"internalType":"address"},{"name":"tokenId","type":"uint256","indexed":false,"internalType":"uint256"},{"name":"endTime","type":"uint256","indexed":false,"internalType":"uint256"},{"name":"minBidUsd18","type":"uint256","indexed":false,"internalType":"uint256"}],"anonymous":false},{"type":"event","name":"AuctionEnded","inputs":[{"name":"auctionId","type":"uint256","indexed":true,"internalType":"uint256"},{"name":"winner","type":"address","indexed":false,"internalType":"address"},{"name":"payToken","type":"address","indexed":false,"internalType":"address"},{"name":"payAmount","type":"uint256","indexed":false,"internalType":"uint256"},{"name":"payUsd18","type":"uint256","indexed":false,"internalType":"uint256"}],"anonymous":false},{"type":"event","name":"BidPlaced","inputs":[{"name":"auctionId","type":"uint256","indexed":true,"internalType":"uint256"},{"name":"bidder","type":"address","indexed":true,"internalType":"address"},{"name":"bidToken","type":"address","indexed":false,"internalType":"address"},{"name":"bidAmount","type":"uint256","indexed":false,"internalType":"uint256"},{"name":"bidUsd18","type":"uint256","indexed":false,"internalType":"uint256"}],"anonymous":false},{"type":"event","name":"Initialized","inputs":[{"name":"version","type":"uint64","indexed":false,"internalType":"uint64"}],"anonymous":false},{"type":"event","name":"OwnershipTransferred","inputs":[{"name":"previousOwner","type":"address","indexed":true,"internalType":"address"},{"name":"newOwner","type":"address","indexed":true,"internalType":"address"}],"anonymous":false},{"type":"event","name":"Upgraded","inputs":[{"name":"implementation","type":"address","indexed":true,"internalType":"address"}],"anonymous":false},{"type":"error","name":"AddressEmptyCode","inputs":[{"name":"target","type":"address","internalType":"address"}]},{"type":"error","name":"AuctionAlreadyEnded","inputs":[]},{"type":"error","name":"AuctionDoesNotExist","inputs":[]},{"type":"error","name":"AuctionNotEndedYet","inputs":[]},{"type":"error","name":"BadDuration","inputs":[]},{"type":"error","name":"BadMinBidUsd","inputs":[]},{"type":"error","name":"BidBelowMin","inputs":[]},{"type":"error","name":"BidNotHighEnough","inputs":[]},{"type":"error","name":"ERC1967InvalidImplementation","inputs":[{"name":"implementation","type":"address","internalType":"address"}]},{"type":"error","name":"ERC1967NonPayable","inputs":[]},{"type":"error","name":"FailedCall","inputs":[]},{"type":"error","name":"InvalidInitialization","inputs":[]},{"type":"error","name":"NotInitializing","inputs":[]},{"type":"error","name":"OwnableInvalidOwner","inputs":[{"name":"owner","type":"address","internalType":"address"}]},{"type":"error","name":"OwnableUnauthorizedAccount","inputs":[{"name":"account","type":"address","internalType":"address"}]},{"type":"error","name":"ReentrancyGuardReentrantCall","inputs":[]},{"type":"error","name":"SafeERC20FailedOperation","inputs":[{"name":"token","type":"address","internalType":"address"}]},{"type":"error","name":"TransferFailed","inputs":[]},{"type":"error","name":"UUPSUnauthorizedCallContext","inputs":[]},{"type":"error","name":"UUPSUnsupportedProxiableUUID","inputs":[{"name":"slot","type":"bytes32","internalType":"bytes32"}]},{"type":"error","name":"ZeroBid","inputs":[]}],"bytecode":{"object":"0x60a06040523073ffffffffffffffffffffffffffffffffffffffff1660809073ffffffffffffffffffffffffffffffffffffffff16815250348015610042575f5ffd5b5061005161005660201b60201c565b6101b6565b5f61006561015460201b60201c565b9050805f0160089054906101000a900460ff16156100af576040517ff92ee8a900000000000000000000000000000000000000000000000000000000815260040160405180910390fd5b67ffffffffffffffff8016815f015f9054906101000a900467ffffffffffffffff1667ffffffffffffffff16146101515767ffffffffffffffff815f015f6101000a81548167ffffffffffffffff021916908367ffffffffffffffff1602179055507fc7f505b2f371ae2175ee4913f4499e1f2633a7b5936321eed1cdaeb6115181d267ffffffffffffffff604051610148919061019d565b60405180910390a15b50565b5f7ff0c57e16840df040f15088dc2f81fe391c3923bec73e23a9662efc9c229c6a00905090565b5f67ffffffffffffffff82169050919050565b6101978161017b565b82525050565b5f6020820190506101b05f83018461018e565b92915050565b608051613acf6101dc5f395f8181611d9201528181611de70152611fa10152613acf5ff3fe60806040526004361061012d575f3560e01c8063571a26a0116100aa5780638da5cb5b1161006e5780638da5cb5b146103cd578063ad3cb1cc146103f7578063b9a2de3a14610421578063f2fde38b14610449578063f7013ef614610471578063fc5284821461049957610134565b8063571a26a0146102d057806361beb1d714610315578063715018a61461035157806378bd7935146103675780638009b7bd146103a357610134565b806346904840116100f1578063469048401461021a5780634d9a75e5146102445780634f1ef2861461026e57806352d1902d1461028a57806355c623c6146102b457610134565b8063150b7a021461013857806324a9d853146101745780632ddbd42c1461019e57806331f7d964146101c65780633e413bee146101f057610134565b3661013457005b5f5ffd5b348015610143575f5ffd5b5061015e60048036038101906101599190612d5a565b6104c3565b60405161016b9190612e14565b60405180910390f35b34801561017f575f5ffd5b506101886104d6565b6040516101959190612e3c565b60405180910390f35b3480156101a9575f5ffd5b506101c460048036038101906101bf9190612e55565b6104dc565b005b3480156101d1575f5ffd5b506101da6106d4565b6040516101e79190612ea2565b60405180910390f35b3480156101fb575f5ffd5b506102046106d8565b6040516102119190612f16565b60405180910390f35b348015610225575f5ffd5b5061022e6106fd565b60405161023b9190612ea2565b60405180910390f35b34801561024f575f5ffd5b50610258610722565b6040516102659190612f4f565b60405180910390f35b61028860048036038101906102839190612f68565b610747565b005b348015610295575f5ffd5b5061029e610766565b6040516102ab9190612fda565b60405180910390f35b6102ce60048036038101906102c99190612ff3565b610797565b005b3480156102db575f5ffd5b506102f660048036038101906102f19190612ff3565b61091f565b60405161030c9a99989796959493929190613038565b60405180910390f35b348015610320575f5ffd5b5061033b600480360381019061033691906130d2565b6109f8565b6040516103489190612e3c565b60405180910390f35b34801561035c575f5ffd5b50610365610da0565b005b348015610372575f5ffd5b5061038d60048036038101906103889190612ff3565b610db3565b60405161039a919061322d565b60405180910390f35b3480156103ae575f5ffd5b506103b7610f7f565b6040516103c49190612f4f565b60405180910390f35b3480156103d8575f5ffd5b506103e1610fa4565b6040516103ee9190612ea2565b60405180910390f35b348015610402575f5ffd5b5061040b610fd9565b60405161041891906132a7565b60405180910390f35b34801561042c575f5ffd5b5061044760048036038101906104429190612ff3565b611012565b005b348015610454575f5ffd5b5061046f600480360381019061046a91906132c7565b61170d565b005b34801561047c575f5ffd5b50610497600480360381019061049291906132f2565b611791565b005b3480156104a4575f5ffd5b506104ad611a2d565b6040516104ba9190612e3c565b60405180910390f35b5f63150b7a0260e01b9050949350505050565b60065481565b6104e4611a32565b5f60015f8481526020019081526020015f2090505f73ffffffffffffffffffffffffffffffffffffffff16815f015f9054906101000a900473ffffffffffffffffffffffffffffffffffffffff1673ffffffffffffffffffffffffffffffffffffffff160361057f576040517fe6759c6700000000000000000000000000000000000000000000000000000000815260040160405180910390fd5b806004015f9054906101000a900460ff16156105c7576040517fd02e774d00000000000000000000000000000000000000000000000000000000815260040160405180910390fd5b80600301544210610604576040517fbbb81f8000000000000000000000000000000000000000000000000000000000815260040160405180910390fd5b5f820361063d576040517f53fc715700000000000000000000000000000000000000000000000000000000815260040160405180910390fd5b5f61064783611a86565b905061069733308560025f9054906101000a900473ffffffffffffffffffffffffffffffffffffffff1673ffffffffffffffffffffffffffffffffffffffff16611b0a909392919063ffffffff16565b6106c682853360025f9054906101000a900473ffffffffffffffffffffffffffffffffffffffff168786611b5f565b50506106d0611d79565b5050565b5f81565b60025f9054906101000a900473ffffffffffffffffffffffffffffffffffffffff1681565b60055f9054906101000a900473ffffffffffffffffffffffffffffffffffffffff1681565b60045f9054906101000a900473ffffffffffffffffffffffffffffffffffffffff1681565b61074f611d90565b61075882611e76565b6107628282611e81565b5050565b5f61076f611f9f565b7f360894a13ba1a3210667c828492db98dca3e2076cc3735a920a3ca505d382bbc5f1b905090565b61079f611a32565b5f60015f8381526020019081526020015f2090505f73ffffffffffffffffffffffffffffffffffffffff16815f015f9054906101000a900473ffffffffffffffffffffffffffffffffffffffff1673ffffffffffffffffffffffffffffffffffffffff160361083a576040517fe6759c6700000000000000000000000000000000000000000000000000000000815260040160405180910390fd5b806004015f9054906101000a900460ff1615610882576040517fd02e774d00000000000000000000000000000000000000000000000000000000815260040160405180910390fd5b806003015442106108bf576040517fbbb81f8000000000000000000000000000000000000000000000000000000000815260040160405180910390fd5b5f34036108f8576040517f53fc715700000000000000000000000000000000000000000000000000000000815260040160405180910390fd5b5f61090234612026565b90506109128284335f3486611b5f565b505061091c611d79565b50565b6001602052805f5260405f205f91509050805f015f9054906101000a900473ffffffffffffffffffffffffffffffffffffffff1690806001015f9054906101000a900473ffffffffffffffffffffffffffffffffffffffff1690806002015490806003015490806004015f9054906101000a900460ff16908060040160019054906101000a900473ffffffffffffffffffffffffffffffffffffffff1690806005015490806006015490806007015f9054906101000a900473ffffffffffffffffffffffffffffffffffffffff1690806008015490508a565b5f610a01611a32565b5f8303610a3a576040517f4d84c2e900000000000000000000000000000000000000000000000000000000815260040160405180910390fd5b5f8203610a73576040517f58f135b600000000000000000000000000000000000000000000000000000000815260040160405180910390fd5b5f5f8154610a8090613396565b91905081905590506040518061014001604052803373ffffffffffffffffffffffffffffffffffffffff1681526020018673ffffffffffffffffffffffffffffffffffffffff1681526020018581526020018442610ade91906133dd565b81526020015f151581526020015f73ffffffffffffffffffffffffffffffffffffffff1681526020015f81526020015f81526020015f73ffffffffffffffffffffffffffffffffffffffff1681526020018381525060015f8381526020019081526020015f205f820151815f015f6101000a81548173ffffffffffffffffffffffffffffffffffffffff021916908373ffffffffffffffffffffffffffffffffffffffff1602179055506020820151816001015f6101000a81548173ffffffffffffffffffffffffffffffffffffffff021916908373ffffffffffffffffffffffffffffffffffffffff16021790555060408201518160020155606082015181600301556080820151816004015f6101000a81548160ff02191690831515021790555060a08201518160040160016101000a81548173ffffffffffffffffffffffffffffffffffffffff021916908373ffffffffffffffffffffffffffffffffffffffff16021790555060c0820151816005015560e08201518160060155610100820151816007015f6101000a81548173ffffffffffffffffffffffffffffffffffffffff021916908373ffffffffffffffffffffffffffffffffffffffff16021790555061012082015181600801559050508473ffffffffffffffffffffffffffffffffffffffff166342842e0e3330876040518463ffffffff1660e01b8152600401610cee93929190613410565b5f604051808303815f87803b158015610d05575f5ffd5b505af1158015610d17573d5f5f3e3d5ffd5b505050508473ffffffffffffffffffffffffffffffffffffffff163373ffffffffffffffffffffffffffffffffffffffff16827f06b9e486c68303eb64052e0493f906f3d93a1b7149b6b8dcff221aebd16c3513878742610d7891906133dd565b87604051610d8893929190613445565b60405180910390a4610d98611d79565b949350505050565b610da86120ac565b610db15f612133565b565b610dbb612add565b60015f8381526020019081526020015f20604051806101400160405290815f82015f9054906101000a900473ffffffffffffffffffffffffffffffffffffffff1673ffffffffffffffffffffffffffffffffffffffff1673ffffffffffffffffffffffffffffffffffffffff168152602001600182015f9054906101000a900473ffffffffffffffffffffffffffffffffffffffff1673ffffffffffffffffffffffffffffffffffffffff1673ffffffffffffffffffffffffffffffffffffffff1681526020016002820154815260200160038201548152602001600482015f9054906101000a900460ff161515151581526020016004820160019054906101000a900473ffffffffffffffffffffffffffffffffffffffff1673ffffffffffffffffffffffffffffffffffffffff1673ffffffffffffffffffffffffffffffffffffffff1681526020016005820154815260200160068201548152602001600782015f9054906101000a900473ffffffffffffffffffffffffffffffffffffffff1673ffffffffffffffffffffffffffffffffffffffff1673ffffffffffffffffffffffffffffffffffffffff1681526020016008820154815250509050919050565b60035f9054906101000a900473ffffffffffffffffffffffffffffffffffffffff1681565b5f5f610fae612204565b9050805f015f9054906101000a900473ffffffffffffffffffffffffffffffffffffffff1691505090565b6040518060400160405280600581526020017f352e302e3000000000000000000000000000000000000000000000000000000081525081565b61101a611a32565b5f60015f8381526020019081526020015f2090505f73ffffffffffffffffffffffffffffffffffffffff16815f015f9054906101000a900473ffffffffffffffffffffffffffffffffffffffff1673ffffffffffffffffffffffffffffffffffffffff16036110b5576040517fe6759c6700000000000000000000000000000000000000000000000000000000815260040160405180910390fd5b806004015f9054906101000a900460ff16156110fd576040517fd02e774d00000000000000000000000000000000000000000000000000000000815260040160405180910390fd5b806003015442101561113b576040517fbbb81f8000000000000000000000000000000000000000000000000000000000815260040160405180910390fd5b6001816004015f6101000a81548160ff0219169083151502179055505f73ffffffffffffffffffffffffffffffffffffffff16816007015f9054906101000a900473ffffffffffffffffffffffffffffffffffffffff1673ffffffffffffffffffffffffffffffffffffffff160361129357806001015f9054906101000a900473ffffffffffffffffffffffffffffffffffffffff1673ffffffffffffffffffffffffffffffffffffffff166342842e0e30835f015f9054906101000a900473ffffffffffffffffffffffffffffffffffffffff1684600201546040518463ffffffff1660e01b815260040161123393929190613410565b5f604051808303815f87803b15801561124a575f5ffd5b505af115801561125c573d5f5f3e3d5ffd5b50505050817f2809c7e17bf978fbc7194c0a694b638c4215e9140cacc6c38ca36010b45697df60405160405180910390a250611702565b806001015f9054906101000a900473ffffffffffffffffffffffffffffffffffffffff1673ffffffffffffffffffffffffffffffffffffffff166342842e0e30836007015f9054906101000a900473ffffffffffffffffffffffffffffffffffffffff1684600201546040518463ffffffff1660e01b815260040161131a93929190613410565b5f604051808303815f87803b158015611331575f5ffd5b505af1158015611343573d5f5f3e3d5ffd5b505050505f816005015490505f73ffffffffffffffffffffffffffffffffffffffff168260040160019054906101000a900473ffffffffffffffffffffffffffffffffffffffff1673ffffffffffffffffffffffffffffffffffffffff1603611561575f612710600654836113b8919061347a565b6113c291906134e8565b90505f81111561148e575f60055f9054906101000a900473ffffffffffffffffffffffffffffffffffffffff1673ffffffffffffffffffffffffffffffffffffffff168260405161141290613545565b5f6040518083038185875af1925050503d805f811461144c576040519150601f19603f3d011682016040523d82523d5f602084013e611451565b606091505b505090508061148c576040517f90b8ec1800000000000000000000000000000000000000000000000000000000815260040160405180910390fd5b505b5f835f015f9054906101000a900473ffffffffffffffffffffffffffffffffffffffff1673ffffffffffffffffffffffffffffffffffffffff1682846114d49190613559565b6040516114e090613545565b5f6040518083038185875af1925050503d805f811461151a576040519150601f19603f3d011682016040523d82523d5f602084013e61151f565b606091505b505090508061155a576040517f90b8ec1800000000000000000000000000000000000000000000000000000000815260040160405180910390fd5b5050611676565b5f61271060065483611573919061347a565b61157d91906134e8565b90505f8111156115f8576115f760055f9054906101000a900473ffffffffffffffffffffffffffffffffffffffff16828560040160019054906101000a900473ffffffffffffffffffffffffffffffffffffffff1673ffffffffffffffffffffffffffffffffffffffff1661222b9092919063ffffffff16565b5b611674835f015f9054906101000a900473ffffffffffffffffffffffffffffffffffffffff16828461162a9190613559565b8560040160019054906101000a900473ffffffffffffffffffffffffffffffffffffffff1673ffffffffffffffffffffffffffffffffffffffff1661222b9092919063ffffffff16565b505b827f596165d0521c3cb4157fad2621686f086daed4663acb3d03441a92b9277f5683836007015f9054906101000a900473ffffffffffffffffffffffffffffffffffffffff168460040160019054906101000a900473ffffffffffffffffffffffffffffffffffffffff168486600601546040516116f7949392919061358c565b60405180910390a250505b61170a611d79565b50565b6117156120ac565b5f73ffffffffffffffffffffffffffffffffffffffff168173ffffffffffffffffffffffffffffffffffffffff1603611785575f6040517f1e4fbdf700000000000000000000000000000000000000000000000000000000815260040161177c9190612ea2565b60405180910390fd5b61178e81612133565b50565b5f61179a61227e565b90505f815f0160089054906101000a900460ff161590505f825f015f9054906101000a900467ffffffffffffffff1690505f5f8267ffffffffffffffff161480156117e25750825b90505f60018367ffffffffffffffff1614801561181557505f3073ffffffffffffffffffffffffffffffffffffffff163b145b905081158015611823575080155b1561185a576040517ff92ee8a900000000000000000000000000000000000000000000000000000000815260040160405180910390fd5b6001855f015f6101000a81548167ffffffffffffffff021916908367ffffffffffffffff16021790555083156118a7576001855f0160086101000a81548160ff0219169083151502179055505b6118b0336122a5565b6118b86122b9565b6118c06122c3565b8960035f6101000a81548173ffffffffffffffffffffffffffffffffffffffff021916908373ffffffffffffffffffffffffffffffffffffffff1602179055508860025f6101000a81548173ffffffffffffffffffffffffffffffffffffffff021916908373ffffffffffffffffffffffffffffffffffffffff1602179055508760045f6101000a81548173ffffffffffffffffffffffffffffffffffffffff021916908373ffffffffffffffffffffffffffffffffffffffff1602179055508660055f6101000a81548173ffffffffffffffffffffffffffffffffffffffff021916908373ffffffffffffffffffffffffffffffffffffffff160217905550856006819055508315611a21575f855f0160086101000a81548160ff0219169083151502179055507fc7f505b2f371ae2175ee4913f4499e1f2633a7b5936321eed1cdaeb6115181d26001604051611a18919061361b565b60405180910390a15b50505050505050505050565b5f5481565b5f611a3b6122d5565b90506002815f015403611a7a576040517f3ee5aeb500000000000000000000000000000000000000000000000000000000815260040160405180910390fd5b6002815f018190555050565b5f617a694603611aa85764e8d4a5100082611aa1919061347a565b9050611b05565b5f5f611ad460045f9054906101000a900473ffffffffffffffffffffffffffffffffffffffff166122fc565b915091505f620f42408386611ae9919061347a565b611af391906134e8565b9050611aff8183612471565b93505050505b919050565b611b188484848460016124e9565b611b5957836040517f5274afe7000000000000000000000000000000000000000000000000000000008152600401611b509190612ea2565b60405180910390fd5b50505050565b8560080154811015611b9d576040517f014e404a00000000000000000000000000000000000000000000000000000000815260040160405180910390fd5b85600601548111611bda576040517f3bdb1be700000000000000000000000000000000000000000000000000000000815260040160405180910390fd5b5f73ffffffffffffffffffffffffffffffffffffffff16866007015f9054906101000a900473ffffffffffffffffffffffffffffffffffffffff1673ffffffffffffffffffffffffffffffffffffffff1614611c8757611c86866007015f9054906101000a900473ffffffffffffffffffffffffffffffffffffffff168760040160019054906101000a900473ffffffffffffffffffffffffffffffffffffffff16886005015461255a565b5b83866007015f6101000a81548173ffffffffffffffffffffffffffffffffffffffff021916908373ffffffffffffffffffffffffffffffffffffffff160217905550828660040160016101000a81548173ffffffffffffffffffffffffffffffffffffffff021916908373ffffffffffffffffffffffffffffffffffffffff1602179055508186600501819055508086600601819055508373ffffffffffffffffffffffffffffffffffffffff16857f2808decb743a25d04efe1bd3dc192acde3be644e2f6ad1dce5d3c46643e1c602858585604051611d6993929190613634565b60405180910390a3505050505050565b5f611d826122d5565b90506001815f018190555050565b7f000000000000000000000000000000000000000000000000000000000000000073ffffffffffffffffffffffffffffffffffffffff163073ffffffffffffffffffffffffffffffffffffffff161480611e3d57507f000000000000000000000000000000000000000000000000000000000000000073ffffffffffffffffffffffffffffffffffffffff16611e2461266c565b73ffffffffffffffffffffffffffffffffffffffff1614155b15611e74576040517fe07c8dba00000000000000000000000000000000000000000000000000000000815260040160405180910390fd5b565b611e7e6120ac565b50565b8173ffffffffffffffffffffffffffffffffffffffff166352d1902d6040518163ffffffff1660e01b8152600401602060405180830381865afa925050508015611ee957506040513d601f19601f82011682018060405250810190611ee69190613693565b60015b611f2a57816040517f4c9c8ce3000000000000000000000000000000000000000000000000000000008152600401611f219190612ea2565b60405180910390fd5b7f360894a13ba1a3210667c828492db98dca3e2076cc3735a920a3ca505d382bbc5f1b8114611f9057806040517faa1d49a4000000000000000000000000000000000000000000000000000000008152600401611f879190612fda565b60405180910390fd5b611f9a83836126bf565b505050565b7f000000000000000000000000000000000000000000000000000000000000000073ffffffffffffffffffffffffffffffffffffffff163073ffffffffffffffffffffffffffffffffffffffff1614612024576040517fe07c8dba00000000000000000000000000000000000000000000000000000000815260040160405180910390fd5b565b5f617a694603612045576107d08261203e919061347a565b90506120a7565b5f5f61207160035f9054906101000a900473ffffffffffffffffffffffffffffffffffffffff166122fc565b915091505f670de0b6b3a7640000838661208b919061347a565b61209591906134e8565b90506120a18183612471565b93505050505b919050565b6120b4612731565b73ffffffffffffffffffffffffffffffffffffffff166120d2610fa4565b73ffffffffffffffffffffffffffffffffffffffff1614612131576120f5612731565b6040517f118cdaa70000000000000000000000000000000000000000000000000000000081526004016121289190612ea2565b60405180910390fd5b565b5f61213c612204565b90505f815f015f9054906101000a900473ffffffffffffffffffffffffffffffffffffffff16905082825f015f6101000a81548173ffffffffffffffffffffffffffffffffffffffff021916908373ffffffffffffffffffffffffffffffffffffffff1602179055508273ffffffffffffffffffffffffffffffffffffffff168173ffffffffffffffffffffffffffffffffffffffff167f8be0079c531659141344cd1fd0a4f28419497f9722a3daafe3b4186f6b6457e060405160405180910390a3505050565b5f7f9016d09d72d40fdae2fd8ceac6b6234c7706214fd39c1cd1e609a0528c199300905090565b6122388383836001612738565b61227957826040517f5274afe70000000000000000000000000000000000000000000000000000000081526004016122709190612ea2565b60405180910390fd5b505050565b5f7ff0c57e16840df040f15088dc2f81fe391c3923bec73e23a9662efc9c229c6a00905090565b6122ad61279a565b6122b6816127da565b50565b6122c161279a565b565b6122cb61279a565b6122d361285e565b565b5f7f9b779b17422d0df92223018b32b4d1fa46e071723d6817e2486d003becc55f00905090565b5f5f5f5f8473ffffffffffffffffffffffffffffffffffffffff1663feaf968c6040518163ffffffff1660e01b815260040160a060405180830381865afa158015612349573d5f5f3e3d5ffd5b505050506040513d601f19601f8201168201806040525081019061236d9190613744565b509350509250505f82136123b6576040517f08c379a00000000000000000000000000000000000000000000000000000000081526004016123ad90613805565b60405180910390fd5b5f81116123f8576040517f08c379a00000000000000000000000000000000000000000000000000000000081526004016123ef9061386d565b60405180910390fd5b8193508473ffffffffffffffffffffffffffffffffffffffff1663313ce5676040518163ffffffff1660e01b8152600401602060405180830381865afa158015612444573d5f5f3e3d5ffd5b505050506040513d601f19601f8201168201806040525081019061246891906138c1565b92505050915091565b5f60128260ff1603612485578290506124e3565b60128260ff1610156124bc5781601261249e91906138ec565b600a6124aa9190613a4f565b836124b5919061347a565b90506124e3565b6012826124c991906138ec565b600a6124d59190613a4f565b836124e091906134e8565b90505b92915050565b5f5f6323b872dd60e01b9050604051815f525f1960601c87166004525f1960601c86166024528460445260205f60645f5f8c5af1925060015f5114831661254757838315161561253b573d5f823e3d81fd5b5f883b113d1516831692505b806040525f606052505095945050505050565b5f810315612667575f73ffffffffffffffffffffffffffffffffffffffff168273ffffffffffffffffffffffffffffffffffffffff160361263a575f8373ffffffffffffffffffffffffffffffffffffffff16826040516125ba90613545565b5f6040518083038185875af1925050503d805f81146125f4576040519150601f19603f3d011682016040523d82523d5f602084013e6125f9565b606091505b5050905080612634576040517f90b8ec1800000000000000000000000000000000000000000000000000000000815260040160405180910390fd5b50612666565b61266583828473ffffffffffffffffffffffffffffffffffffffff1661222b9092919063ffffffff16565b5b5b505050565b5f6126987f360894a13ba1a3210667c828492db98dca3e2076cc3735a920a3ca505d382bbc5f1b61287d565b5f015f9054906101000a900473ffffffffffffffffffffffffffffffffffffffff16905090565b6126c882612886565b8173ffffffffffffffffffffffffffffffffffffffff167fbc7cd75a20ee27fd9adebab32041f755214dbc6bffa90cc0225b39da2e5c2d3b60405160405180910390a25f815111156127245761271e828261294f565b5061272d565b61272c612a40565b5b5050565b5f33905090565b5f5f63a9059cbb60e01b9050604051815f525f1960601c86166004528460245260205f60445f5f8b5af1925060015f5114831661278c578383151615612780573d5f823e3d81fd5b5f873b113d1516831692505b806040525050949350505050565b6127a2612a7c565b6127d8576040517fd7e6bcf800000000000000000000000000000000000000000000000000000000815260040160405180910390fd5b565b6127e261279a565b5f73ffffffffffffffffffffffffffffffffffffffff168173ffffffffffffffffffffffffffffffffffffffff1603612852575f6040517f1e4fbdf70000000000000000000000000000000000000000000000000000000081526004016128499190612ea2565b60405180910390fd5b61285b81612133565b50565b61286661279a565b5f61286f6122d5565b90506001815f018190555050565b5f819050919050565b5f8173ffffffffffffffffffffffffffffffffffffffff163b036128e157806040517f4c9c8ce30000000000000000000000000000000000000000000000000000000081526004016128d89190612ea2565b60405180910390fd5b8061290d7f360894a13ba1a3210667c828492db98dca3e2076cc3735a920a3ca505d382bbc5f1b61287d565b5f015f6101000a81548173ffffffffffffffffffffffffffffffffffffffff021916908373ffffffffffffffffffffffffffffffffffffffff16021790555050565b60605f61295c8484612a9a565b905080801561299257505f61296f612aae565b118061299157505f8473ffffffffffffffffffffffffffffffffffffffff163b115b5b156129a75761299f612ab5565b915050612a3a565b80156129ea57836040517f9996b3150000000000000000000000000000000000000000000000000000000081526004016129e19190612ea2565b60405180910390fd5b5f6129f3612aae565b1115612a0657612a01612ad2565b612a38565b6040517fd6bda27500000000000000000000000000000000000000000000000000000000815260040160405180910390fd5b505b92915050565b5f341115612a7a576040517fb398979f00000000000000000000000000000000000000000000000000000000815260040160405180910390fd5b565b5f612a8561227e565b5f0160089054906101000a900460ff16905090565b5f5f5f835160208501865af4905092915050565b5f3d905090565b606060405190503d81523d5f602083013e3d602001810160405290565b6040513d5f823e3d81fd5b6040518061014001604052805f73ffffffffffffffffffffffffffffffffffffffff1681526020015f73ffffffffffffffffffffffffffffffffffffffff1681526020015f81526020015f81526020015f151581526020015f73ffffffffffffffffffffffffffffffffffffffff1681526020015f81526020015f81526020015f73ffffffffffffffffffffffffffffffffffffffff1681526020015f81525090565b5f604051905090565b5f5ffd5b5f5ffd5b5f73ffffffffffffffffffffffffffffffffffffffff82169050919050565b5f612bba82612b91565b9050919050565b612bca81612bb0565b8114612bd4575f5ffd5b50565b5f81359050612be581612bc1565b92915050565b5f819050919050565b612bfd81612beb565b8114612c07575f5ffd5b50565b5f81359050612c1881612bf4565b92915050565b5f5ffd5b5f5ffd5b5f601f19601f8301169050919050565b7f4e487b71000000000000000000000000000000000000000000000000000000005f52604160045260245ffd5b612c6c82612c26565b810181811067ffffffffffffffff82111715612c8b57612c8a612c36565b5b80604052505050565b5f612c9d612b80565b9050612ca98282612c63565b919050565b5f67ffffffffffffffff821115612cc857612cc7612c36565b5b612cd182612c26565b9050602081019050919050565b828183375f83830152505050565b5f612cfe612cf984612cae565b612c94565b905082815260208101848484011115612d1a57612d19612c22565b5b612d25848285612cde565b509392505050565b5f82601f830112612d4157612d40612c1e565b5b8135612d51848260208601612cec565b91505092915050565b5f5f5f5f60808587031215612d7257612d71612b89565b5b5f612d7f87828801612bd7565b9450506020612d9087828801612bd7565b9350506040612da187828801612c0a565b925050606085013567ffffffffffffffff811115612dc257612dc1612b8d565b5b612dce87828801612d2d565b91505092959194509250565b5f7fffffffff0000000000000000000000000000000000000000000000000000000082169050919050565b612e0e81612dda565b82525050565b5f602082019050612e275f830184612e05565b92915050565b612e3681612beb565b82525050565b5f602082019050612e4f5f830184612e2d565b92915050565b5f5f60408385031215612e6b57612e6a612b89565b5b5f612e7885828601612c0a565b9250506020612e8985828601612c0a565b9150509250929050565b612e9c81612bb0565b82525050565b5f602082019050612eb55f830184612e93565b92915050565b5f819050919050565b5f612ede612ed9612ed484612b91565b612ebb565b612b91565b9050919050565b5f612eef82612ec4565b9050919050565b5f612f0082612ee5565b9050919050565b612f1081612ef6565b82525050565b5f602082019050612f295f830184612f07565b92915050565b5f612f3982612ee5565b9050919050565b612f4981612f2f565b82525050565b5f602082019050612f625f830184612f40565b92915050565b5f5f60408385031215612f7e57612f7d612b89565b5b5f612f8b85828601612bd7565b925050602083013567ffffffffffffffff811115612fac57612fab612b8d565b5b612fb885828601612d2d565b9150509250929050565b5f819050919050565b612fd481612fc2565b82525050565b5f602082019050612fed5f830184612fcb565b92915050565b5f6020828403121561300857613007612b89565b5b5f61301584828501612c0a565b91505092915050565b5f8115159050919050565b6130328161301e565b82525050565b5f6101408201905061304c5f83018d612e93565b613059602083018c612e93565b613066604083018b612e2d565b613073606083018a612e2d565b6130806080830189613029565b61308d60a0830188612e93565b61309a60c0830187612e2d565b6130a760e0830186612e2d565b6130b5610100830185612e93565b6130c3610120830184612e2d565b9b9a5050505050505050505050565b5f5f5f5f608085870312156130ea576130e9612b89565b5b5f6130f787828801612bd7565b945050602061310887828801612c0a565b935050604061311987828801612c0a565b925050606061312a87828801612c0a565b91505092959194509250565b61313f81612bb0565b82525050565b61314e81612beb565b82525050565b61315d8161301e565b82525050565b61014082015f8201516131785f850182613136565b50602082015161318b6020850182613136565b50604082015161319e6040850182613145565b5060608201516131b16060850182613145565b5060808201516131c46080850182613154565b5060a08201516131d760a0850182613136565b5060c08201516131ea60c0850182613145565b5060e08201516131fd60e0850182613145565b50610100820151613212610100850182613136565b50610120820151613227610120850182613145565b50505050565b5f610140820190506132415f830184613163565b92915050565b5f81519050919050565b5f82825260208201905092915050565b8281835e5f83830152505050565b5f61327982613247565b6132838185613251565b9350613293818560208601613261565b61329c81612c26565b840191505092915050565b5f6020820190508181035f8301526132bf818461326f565b905092915050565b5f602082840312156132dc576132db612b89565b5b5f6132e984828501612bd7565b91505092915050565b5f5f5f5f5f60a0868803121561330b5761330a612b89565b5b5f61331888828901612bd7565b955050602061332988828901612bd7565b945050604061333a88828901612bd7565b935050606061334b88828901612bd7565b925050608061335c88828901612c0a565b9150509295509295909350565b7f4e487b71000000000000000000000000000000000000000000000000000000005f52601160045260245ffd5b5f6133a082612beb565b91507fffffffffffffffffffffffffffffffffffffffffffffffffffffffffffffffff82036133d2576133d1613369565b5b600182019050919050565b5f6133e782612beb565b91506133f283612beb565b925082820190508082111561340a57613409613369565b5b92915050565b5f6060820190506134235f830186612e93565b6134306020830185612e93565b61343d6040830184612e2d565b949350505050565b5f6060820190506134585f830186612e2d565b6134656020830185612e2d565b6134726040830184612e2d565b949350505050565b5f61348482612beb565b915061348f83612beb565b925082820261349d81612beb565b915082820484148315176134b4576134b3613369565b5b5092915050565b7f4e487b71000000000000000000000000000000000000000000000000000000005f52601260045260245ffd5b5f6134f282612beb565b91506134fd83612beb565b92508261350d5761350c6134bb565b5b828204905092915050565b5f81905092915050565b50565b5f6135305f83613518565b915061353b82613522565b5f82019050919050565b5f61354f82613525565b9150819050919050565b5f61356382612beb565b915061356e83612beb565b925082820390508181111561358657613585613369565b5b92915050565b5f60808201905061359f5f830187612e93565b6135ac6020830186612e93565b6135b96040830185612e2d565b6135c66060830184612e2d565b95945050505050565b5f819050919050565b5f67ffffffffffffffff82169050919050565b5f6136056136006135fb846135cf565b612ebb565b6135d8565b9050919050565b613615816135eb565b82525050565b5f60208201905061362e5f83018461360c565b92915050565b5f6060820190506136475f830186612e93565b6136546020830185612e2d565b6136616040830184612e2d565b949350505050565b61367281612fc2565b811461367c575f5ffd5b50565b5f8151905061368d81613669565b92915050565b5f602082840312156136a8576136a7612b89565b5b5f6136b58482850161367f565b91505092915050565b5f69ffffffffffffffffffff82169050919050565b6136dc816136be565b81146136e6575f5ffd5b50565b5f815190506136f7816136d3565b92915050565b5f819050919050565b61370f816136fd565b8114613719575f5ffd5b50565b5f8151905061372a81613706565b92915050565b5f8151905061373e81612bf4565b92915050565b5f5f5f5f5f60a0868803121561375d5761375c612b89565b5b5f61376a888289016136e9565b955050602061377b8882890161371c565b945050604061378c88828901613730565b935050606061379d88828901613730565b92505060806137ae888289016136e9565b9150509295509295909350565b7f4f7261636c653a2062616420616e7377657200000000000000000000000000005f82015250565b5f6137ef601283613251565b91506137fa826137bb565b602082019050919050565b5f6020820190508181035f83015261381c816137e3565b9050919050565b7f4f7261636c653a207374616c65000000000000000000000000000000000000005f82015250565b5f613857600d83613251565b915061386282613823565b602082019050919050565b5f6020820190508181035f8301526138848161384b565b9050919050565b5f60ff82169050919050565b6138a08161388b565b81146138aa575f5ffd5b50565b5f815190506138bb81613897565b92915050565b5f602082840312156138d6576138d5612b89565b5b5f6138e3848285016138ad565b91505092915050565b5f6138f68261388b565b91506139018361388b565b9250828203905060ff81111561391a57613919613369565b5b92915050565b5f8160011c9050919050565b5f5f8291508390505b60018511156139755780860481111561395157613950613369565b5b60018516156139605780820291505b808102905061396e85613920565b9450613935565b94509492505050565b5f8261398d5760019050613a48565b8161399a575f9050613a48565b81600181146139b057600281146139ba576139e9565b6001915050613a48565b60ff8411156139cc576139cb613369565b5b8360020a9150848211156139e3576139e2613369565b5b50613a48565b5060208310610133831016604e8410600b8410161715613a1e5782820a905083811115613a1957613a18613369565b5b613a48565b613a2b848484600161392c565b92509050818404811115613a4257613a41613369565b5b81810290505b9392505050565b5f613a5982612beb565b9150613a648361388b565b9250613a917fffffffffffffffffffffffffffffffffffffffffffffffffffffffffffffffff848461397e565b90509291505056fea264697066735822122002b66431acf673fd866061cdfdeeb7067703571996254cc0e575afb8cbf2a26f64736f6c63430008230033","linkReferences":{}},"methodIdentifiers":{"NATIVE_TOKEN()":"31f7d964","UPGRADE_INTERFACE_VERSION()":"ad3cb1cc","auctions(uint256)":"571a26a0","bidEth(uint256)":"55c623c6","bidUSDC(uint256,uint256)":"2ddbd42c","createAuction(address,uint256,uint256,uint256)":"61beb1d7","endAuction(uint256)":"b9a2de3a","ethUsdFeed()":"8009b7bd","feeBps()":"24a9d853","feeRecipient()":"46904840","getAuction(uint256)":"78bd7935","initialize(address,address,address,address,uint256)":"f7013ef6","nextAuctionId()":"fc528482","onERC721Received(address,address,uint256,bytes)":"150b7a02","owner()":"8da5cb5b","proxiableUUID()":"52d1902d","renounceOwnership()":"715018a6","transferOwnership(address)":"f2fde38b","upgradeToAndCall(address,bytes)":"4f1ef286","usdc()":"3e413bee","usdcUsdFeed()":"4d9a75e5"},"id":57}